{
  "contractName": "Voting",
  "abi": [
    {
      "constant": true,
      "inputs": [],
      "name": "optionsCount",
      "outputs": [
        {
          "name": "",
          "type": "uint256"
        }
      ],
      "payable": false,
      "stateMutability": "view",
      "type": "function"
    },
    {
      "constant": true,
      "inputs": [
        {
          "name": "",
          "type": "uint256"
        }
      ],
      "name": "options",
      "outputs": [
        {
          "name": "id",
          "type": "uint256"
        },
        {
          "name": "content",
          "type": "string"
        },
        {
          "name": "voteCount",
          "type": "uint256"
        }
      ],
      "payable": false,
      "stateMutability": "view",
      "type": "function"
    },
    {
      "constant": true,
      "inputs": [],
      "name": "voiceCredits",
      "outputs": [
        {
          "name": "",
          "type": "uint256"
        }
      ],
      "payable": false,
      "stateMutability": "view",
      "type": "function"
    },
    {
      "constant": true,
      "inputs": [],
      "name": "votersCount",
      "outputs": [
        {
          "name": "",
          "type": "uint256"
        }
      ],
      "payable": false,
      "stateMutability": "view",
      "type": "function"
    },
    {
      "constant": true,
      "inputs": [
        {
          "name": "",
          "type": "address"
        }
      ],
      "name": "voters",
      "outputs": [
        {
          "name": "",
          "type": "bool"
        }
      ],
      "payable": false,
      "stateMutability": "view",
      "type": "function"
    },
    {
      "inputs": [],
      "payable": false,
      "stateMutability": "nonpayable",
      "type": "constructor"
    },
    {
      "anonymous": false,
      "inputs": [
        {
          "indexed": true,
          "name": "_votersCount",
          "type": "uint256"
        }
      ],
      "name": "votedEvent",
      "type": "event"
    },
    {
      "constant": false,
      "inputs": [
        {
          "name": "_voteCounts",
          "type": "uint256[]"
        }
      ],
      "name": "vote",
      "outputs": [],
      "payable": false,
      "stateMutability": "nonpayable",
      "type": "function"
    },
    {
      "constant": false,
      "inputs": [],
      "name": "updateVoted",
      "outputs": [],
      "payable": false,
      "stateMutability": "nonpayable",
      "type": "function"
    }
  ],
  "bytecode": "0x608060405234801561001057600080fd5b5061005e6040805190810160405280600881526020017f4f7074696f6e2031000000000000000000000000000000000000000000000000815250610105640100000000026401000000009004565b6100ab6040805190810160405280600881526020017f4f7074696f6e2032000000000000000000000000000000000000000000000000815250610105640100000000026401000000009004565b6100f86040805190810160405280600881526020017f4f7074696f6e2033000000000000000000000000000000000000000000000000815250610105640100000000026401000000009004565b6064600481905550610227565b60026000815480929190600101919050555060606040519081016040528060025481526020018281526020016000815250600160006002548152602001908152602001600020600082015181600001556020820151816001019080519060200190610171929190610182565b506040820151816002015590505050565b828054600181600116156101000203166002900490600052602060002090601f016020900481019282601f106101c357805160ff19168380011785556101f1565b828001600101855582156101f1579182015b828111156101f05782518255916020019190600101906101d5565b5b5090506101fe9190610202565b5090565b61022491905b80821115610220576000816000905550600101610208565b5090565b90565b61052e806102366000396000f300608060405260043610610083576000357c0100000000000000000000000000000000000000000000000000000000900463ffffffff1680631a1dbabb146100885780632cdb75e6146100b3578063409e2205146100ca5780635421cd491461017e57806398c07938146101a9578063a3ec138d146101d4578063ce11f2bb1461022f575b600080fd5b34801561009457600080fd5b5061009d610295565b6040518082815260200191505060405180910390f35b3480156100bf57600080fd5b506100c861029b565b005b3480156100d657600080fd5b506100f5600480360381019080803590602001909291905050506102f4565b6040518084815260200180602001838152602001828103825284818151815260200191508051906020019080838360005b83811015610141578082015181840152602081019050610126565b50505050905090810190601f16801561016e5780820380516001836020036101000a031916815260200191505b5094505050505060405180910390f35b34801561018a57600080fd5b506101936103b6565b6040518082815260200191505060405180910390f35b3480156101b557600080fd5b506101be6103bc565b6040518082815260200191505060405180910390f35b3480156101e057600080fd5b50610215600480360381019080803573ffffffffffffffffffffffffffffffffffffffff1690602001909291905050506103c2565b604051808215151515815260200191505060405180910390f35b34801561023b57600080fd5b50610293600480360381019080803590602001908201803590602001908080602002602001604051908101604052809392919081815260200183836020028082843782019150505050505091929192905050506103e2565b005b60025481565b60016000803373ffffffffffffffffffffffffffffffffffffffff1673ffffffffffffffffffffffffffffffffffffffff16815260200190815260200160002060006101000a81548160ff021916908315150217905550565b6001602052806000526040600020600091509050806000015490806001018054600181600116156101000203166002900480601f0160208091040260200160405190810160405280929190818152602001828054600181600116156101000203166002900480156103a65780601f1061037b576101008083540402835291602001916103a6565b820191906000526020600020905b81548152906001019060200180831161038957829003601f168201915b5050505050908060020154905083565b60045481565b60035481565b60006020528060005260406000206000915054906101000a900460ff1681565b60008060003373ffffffffffffffffffffffffffffffffffffffff1673ffffffffffffffffffffffffffffffffffffffff16815260200190815260200160002060009054906101000a900460ff1615151561043c57600080fd5b600090505b60025481101561049657818181518110151561045957fe5b9060200190602002015160016000600184018152602001908152602001600020600201600082825401925050819055508080600101915050610441565b60016000803373ffffffffffffffffffffffffffffffffffffffff1673ffffffffffffffffffffffffffffffffffffffff16815260200190815260200160002060006101000a81548160ff021916908315150217905550600160036000828254019250508190555050505600a165627a7a7230582091eb0f9a5f9b247cf8f4adb7b9fba6850ef70c409002f15b56c50221ea6124560029",
  "source": "pragma solidity >=0.4.22 <0.9.0;\n\ncontract Voting{\n\n\t// Model an option\n\tstruct Option {\n\t\tuint id;\n\t\tstring content;\n\t\tuint voteCount;\n\t}\n\n\t// Model a voter\n\t/*struct Voter {\n\t\tuint id;\n\t\tuint voiceCreds;\n\t\tbool voted;\n\t\tbool valid;\n\t}*/\n\n\t/*struct poll {\n\t\tuint id;\n\t\tuint voiceCredits;\n\t\tmapping(uint => Option) public options;\n\t}*/\n\n\tevent votedEvent (\n        uint indexed _votersCount\n    );\n\n\n\t// Record accounts\n\t//mapping(address => Voter) public voters;\n\tmapping(address => bool) public voters;\n\n\t// Store options\n\t// Fetch options\n\tmapping(uint => Option) public options;\n\n\t// Store options count\n\tuint public optionsCount;\n\n\t// Store voters count\n\tuint public votersCount;\n\n\t// sotre voice creds\n\tuint public voiceCredits;\n\n\t// Voted event\n\t//event votedEvent(\n\t\t//uint indexed _optionId\n\t//);\n\n\tconstructor() public {\n\t\taddOption(\"Option 1\");\n\t\taddOption(\"Option 2\");\n\t\taddOption(\"Option 3\");\n\t\tvoiceCredits = 100;\n\t}\n\n\t/*function addVoter(address _useraddress) public{\n\t\trequire(!voters[_useraddress].valid);\n\t\tvotersCount++;\n\t\tvoters[_useraddress] = Voter(votersCount, 100, false, true);\n\t}*/\n\n\n\t// Add and initialize option with 0 votes\n\tfunction addOption(string memory _content) private{\n\t\toptionsCount++;\n\t\toptions[optionsCount] = Option(optionsCount, _content, 0);\n\t}\n\n\tfunction vote(uint[] memory _voteCounts) public {\n\t\t// Require adderss that hasn't voted\n\t\trequire(!voters[msg.sender]);\n\n\t\t// Require that option id is valid\n\t\t//require(_optionId > 0 && _optionId <= optionsCount);\n\t\tfor(uint i = 0; i < optionsCount; i++){\n\t\t\toptions[i+1].voteCount += _voteCounts[i];\n\t\t}\n\t\t//require(_optionId > 0 && _optionId <= optionsCount);\n\t\t//options[_optionId].voteCount += _voteCounts;\n\t\t\n\n\t\t// Record user voted\n\t\tvoters[msg.sender] = true;\n\n\t\t// Update vote counts\n\t\tvotersCount += 1; \n\n\t\t//emit votedEvent(votersCount);\n\n\t}\n\n\tfunction updateVoted() public{\n\t\tvoters[msg.sender] = true;\n\t}\n}",
  "sourcePath": "D:\\Users\\Alonzo\\Documents\\NUDOC\\year3\\diss\\code\\QVOTING2\\contracts\\Voting.sol",
  "compiler": {
    "name": "solc",
    "version": "0.4.25+commit.59dbf8f1.Emscripten.clang"
  },
  "schemaVersion": "2.0.2",
  "updatedAt": "2022-03-26T21:59:45.196Z"
}